:1000000012C019C018C017C016C015C014C013C044
:1000100012C011C010C00FC00EC00DC00CC00BC06C
:100020000AC009C008C011241FBECFE5D4E0DEBF5E
:10003000CDBF0AD045C0E4CF5F9BFECF8CB1089501
:100040005D9BFECF8CB908951F9381E085BB10BCEA
:100050008DE489B9599888E18AB98FEF81BB12BACA
:10006000329A319A309A3D9A3E9A339A379A359A13
:10007000369A15B1E1DF8D3119F4812FE1DFF9CF27
:10008000813011F4949AF5CF813111F49498F1CF25
:10009000823011F4959AEDCF8A3111F49598E9CF19
:1000A000833011F4979AE5CF8B3111F49798E1CF13
:1000B000843011F4969ADDCF8C31D9F69698D9CF49
:0400C000F894FFCFE2
:00000001FF
